:040000000C94590003
:100004000C9400000C9400000C9400000C9400006C
:100014000C9400000C9400000C9400000C94F80064
:100024000C9400000C9400000C9400000C9400004C
:100034000C9400000C9400000C9400000C9400003C
:100044000C9400000C9400000C9400000C9400002C
:100054000C9400000C9400000C9400000C9400001C
:100064000C9400000C9400000C9400000C9400000C
:100074000C9400000C9400000C9400000C940000FC
:100084000C9400000C9400003F065B4F666D7D07E6
:100094007F6F400001002D4E414E00494E46000046
:1000A4000B0000058C0001000C0598000000F8947A
:1000B400EE27ECBBF1E0F5BFE5BFE0936C008DE00B
:1000C400A2E0BB27ED938A95E9F780E090E1A0E0F8
:1000D400B1E0ED930197E9F7E4EAF0E085919591B9
:1000E400009761F0A591B59105901590BF01F001BD
:1000F40005900D920197E1F7FB01F0CF8BBFEFEF75
:10010400EDBFE0E1EEBFC0E0D5E00C941201AA938C
:100114000E94660115E02D813E81103099F0D901CD
:10012400EAE0F0E00E9461010E2F1F931150EC8170
:10013400AF91EA1739F0D901EAE0F0E00E944E01EC
:100144009F01EBCFE02F0E946D0127960895BA938B
:10015400AA930E94640111E020E030E04E815F81A7
:1001640022975A934A93A12FD2DFF0E0E883F983D0
:10017400309781F4022E032A49F4E0910B05E5BB84
:10018400153019F4E0910005E5BB03C0E0910005CA
:10019400E5BB08C021E030E0E881F981E050FB4F85
:1001A400E081E5BB1BB2E12FA1E00E943E01E12901
:1001B400EBBB84E08A95F1F71BB2E12FA1E00E942A
:1001C4003E01E095E121EBBB1F5F2296163040F221
:1001D4000E946B0128960895EBB3E17CEBBBE0E051
:1001E400E5BBEEE3EABBEFEFE4BB0895EA93FA93D1
:1001F400EFB7EA930F9B06C0E0E0E0938900E09339
:10020400880009C0409088005524E0918900FE2FA1
:10021400E0E04E0E5F1EE991EFBFF991E991189568
:10022400DBDFE0E4E2B9EABFE0E8E9BF7894E2E0CA
:10023400E0938A00F201A3E0B0E00E944601DF01EE
:10024400EAEFF0E00E944E018F011E9A85E28A9542
:10025400F1F71E98A2E3B0E00E943401D80177DFE1
:10026400E9CFFFCF109639F08BEC9AE00197F1F7C4
:10027400A8951197C9F70895EE230E2EEA2F19F0C9
:10028400EE0F0A94E9F70895FA9FF02DEB9FF00D15
:10029400EA9FE02DF10D08950024112490E1AA0FA6
:1002A400BB1F001C111C0E1A1F0A18F40E0E1F1E71
:1002B40001C0A1609A9599F7FD01D0010895ECDF82
:1002C400FD0108955A934A933A932A931A930A93F1
:1002D40008955D814C813B812A81198108810895AB
:00000001FF
