:0C0000000C9461000C9400000C944C0166
:10000C000C9421010C9400000C9400000C94000042
:10001C000C9400000C9400000C9400000C94000054
:10002C000C9400000C9400000C9400000C94000044
:10003C000C9400000C9400000C9400000C94000034
:10004C000C9400000C9400000C9400000C94000024
:10005C000C9400000C9400000C9400000C94000014
:10006C000C9400000C9400000C9400000C94000004
:10007C000C9400000C9400000C9400000C940000F4
:10008C00030000000A00000000003F065B4F666D95
:10009C007D077F6F400001002D4E414E00494E46BA
:1000AC0000000A0004008C000B0000059600010003
:1000BC000C05A2000000F894EE27ECBBF1E0F5BFB4
:1000CC00E5BFE0936C008DE0A2E0BB27ED938A9531
:1000DC00E9F780E090E1A0E0B1E0ED930197E9F75A
:1000EC00EEEAF0E085919591009761F0A591B591BC
:1000FC0005901590BF01F00105900D920197E1F765
:10010C00FB01F0CF8BBFEFEFEDBFE0E1EEBFC0E046
:10011C00D5E00C948901AA930E942A0315E02D8145
:10012C003E81103099F0D901EAE0F0E00E942503FD
:10013C000E2F1F931150EC81AF91EA1739F0D901B2
:10014C00EAE0F0E00E94ED029F01EBCFE02F0E946D
:10015C003103279608950E947802AF81AA2322F4D6
:10016C00AE81BF81B5D1AF010E94820281F4022E13
:10017C00032A49F4E0910B05E5BB153019F4E09125
:10018C000005E5BB03C0E0910005E5BB14C0A985E3
:10019C00AA237AF4022E032A61F4E0910A05E5BB46
:1001AC000E948D020E9494020E948D02E095E12132
:1001BC00EBBB0E949A020E94A3020E9494020E942E
:1001CC00A302E095E121EBBB1F5F2296163060F293
:1001DC0024C00E9478020E94820281F4022E032A1B
:1001EC0049F4E0910B05E5BB153019F4E0910005DD
:1001FC00E5BB03C0E0910005E5BB02C00E949A027A
:10020C000E94A3020E9494020E94A302E095E121A5
:10021C00EBBB1F5F22961630F0F20E942F0328963C
:10022C000895EBB3E17CEBBBE0E0E5BBEEE3EABBAE
:10023C00EFEFE4BB0895AA93EA93FA93EFB7EA932E
:10024C0082991EC0B394EB2DF0E0E130A0E0FA07E8
:10025C0021F4E1E0DE2E420113C0E230A0E0FA0707
:10026C0031F4E1E0AE2EDD24E8E0E3B909C0E3307F
:10027C00A0E0FA0729F4E0E0E3B9BB244301AA2487
:10028C00E991EFBFF991E991A9911895EA93FA9345
:10029C00EFB7EA93819B0EC0E0916A00EB7FE0938D
:1002AC006A00809903C0F401319602C0F4013197C1
:1002BC004F010DC0E0916A00EC60E0936A008099F8
:1002CC0003C0F401319702C0F40131964F01E9915A
:1002DC00EFBFF991E9911895AA93E881E064E7B929
:1002EC0085E28A95F1F7369A349BFECF349AE4B1C5
:1002FC00F0E0DF01E5B1FE2FE0E0EA0FFB1F0E940A
:10030C00C002219608952697E0E0E883E98320E077
:10031C0030E087DF7894E0916A00EC60E0936A004B
:10032C00E9B7E260E9BFBD9AE0916400E860E09350
:10033C0064008A98E0916A00E062E0936A00E9B791
:10034C00E460E9BFE2B1E863E2B9E0E0E3B9E7E811
:10035C00E6B9E1E8EFBDE9E0EEBDAA2009F49BC0E7
:10036C00A1E0BADF7F936F93FF93EF93A1E0B4DF2B
:10037C00AF91BF918F919F910E94AE027F936F932B
:10038C00FF93EF93A1E0A8DFAF91BF918F919F9165
:10039C000E94AE027F936F93FF93EF93A1E09CDFDB
:1003AC00AF91BF918F919F910E94AE027F936F93FB
:1003BC00FF93EF93A1E090DFAF91BF918F919F914D
:1003CC000E94B302E5E0F0E060E070E00E94000300
:1003DC008F01A3E081DFA6EBB0E080E090E00E940B
:1003EC00CD020E94A902AA81BB818C819D81EFEF75
:1003FC00F3E060E070E00E940003E450FE4F6F4FAA
:10040C007F4F0E94A9020330E0E01E0734F4EFE2B4
:10041C00F2E060E070E00E94A902EA81FB81E01B3F
:10042C00F10B9F01F201D9010E94ED02BF01A881DD
:10043C00B981F901EA1BFB0BDF01F3010E94C50234
:10044C00E60FF71FAF01288339830C3CE1E01E0750
:10045C0014F041E05FEF4030E1E05E0714F04FEF45
:10046C0050E04130EFEF5E0714F441E05FEF5523AD
:10047C003AF0E0916500E77FE09365004ABD08C063
:10048C00E0916500E860E0936500E42FE195EABD3A
:10049C00D80161DE1BC0DD2011F0240101C0340144
:1004AC001C981D9813B0DD2011F0E5E001C0E4E0CC
:1004BC00A1E00E94B802E129E3B9ED2DF0E03097FC
:1004CC0011F0F20101C0F301DF0183DE46CFFFCF53
:1004DC00BA93AA93E991F99130971AF4E095F095B3
:1004EC0031960895BA93AA930E94280311E020E054
:1004FC0030E04E815F81089522975A934A93A12F41
:10050C000E949100F0E0E883F983309708951BB2C4
:10051C00E12FE150A1E00E94B8020895E129EBBB64
:10052C0084E08A95F1F7089521E030E0E881F981C3
:10053C00E050FB4FE081E5BB08951BB2E12FA1E039
:10054C000E94B8020895EA83FB836C837D8308952F
:10055C00EA0FFB1F681F791F0895AE0FBF1F861F80
:10056C00971F0895EE230E2EEA2F19F0EE0F0A9422
:10057C00E9F708956F2F660F660B762F0895FA9F93
:10058C00F02DEB9FF00DEA9FE02DF10D08957A9F71
:10059C00702D6B9F700DF89F700DE99F700D6A9F09
:1005AC00602D710DFB9F600D711DE89F600D711D1D
:1005BC008827FA9FF02D610D781FEB9FF00D611DC0
:1005CC00781FEA9FE02DF10D681F781F0895002415
:1005DC00112490E1AA0FBB1F001C111C0E1A1F0A3C
:1005EC0018F40E0E1F1E01C0A1609A9599F7FD011B
:1005FC00D00108953F934F935F9300241124442717
:10060C00552730E2AA0FBB1F881F991F001C111C15
:10061C00441F551F0E1A1F0A460B570B28F40E0EBB
:10062C001F1E461F571F01C0A1603A9559F7FD01C7
:10063C00BC01D001CA015F914F913F910895C7DF72
:10064C00FD0108955A934A933A932A931A930A9365
:10065C0008955D814C813B812A811981088108951F
:00000001FF
