:020000000C945E
:1000020081000C9400000C9400000C9400000C94ED
:1000120000000C9400000C9400000C9400000C945E
:1000220000000C9400000C9400000C9400000C944E
:1000320000000C9400000C9400000C9400000C943E
:1000420000000C9400000C9400000C9400000C942E
:1000520000000C9400000C9400000C9400000C941E
:1000620000000C9400000C9400000C9400000C940E
:1000720000000C9400000C9400000C9400000C94FE
:1000820000000C9400000C94000041A042A1E04545
:10009200A3A4A5A64BA74D484FA8504354A9AA58BC
:1000A200E1ABACE2ADAE62AFB0B161B2B3B4E365A5
:1000B200B6B7B8B9BABBBCBD6FBE7063BF795C7866
:1000C200E5C0C1E6C2C3C4C5C6C774656D70283039
:1000D20029203D200074656D70283729203D2000BD
:1000E20001002D4E414E00494E4600000B00000516
:1000F200CC000B000B05D70001001605E200000042
:10010200F894EE27ECBBF1E0F5BFE5BFE0936C009D
:100112008DE0A2E0BB27ED938A95E9F780E090E1BC
:10012200A0E0B1E0ED930197E9F7EEEEF0E0859102
:100132009591009761F0A591B59105901590BF0139
:10014200F00105900D920197E1F7FB01F0CF8BBF13
:10015200EFEFEDBFE0E1EEBFC0E0D5E00C940E02A0
:10016200AA93E881A0E4EA02F001A981EA0FE0681B
:100172000E943702DDC0BA93AA930E94A00230E027
:10018200AD81AA231AF4E6E90E943C0201E010E0E4
:100192000630E0E01E079CF4EC81FD81FA93EA93BD
:1001A200A02F55D02E2F203009F031E0313021F42C
:1001B200E22FE05D0E943C020F5F1F4FE9CF0E94D9
:1001C200A50226960895BA93AA93E881F9813097F9
:1001D20011F0979801C0979AEA81E5BB969A82E15D
:1001E2008A95F1F79698A3E0B0E00E9469020AC1ED
:1001F200EFEFE4BBE1B3E06CE1BBA4E6B0E00E9448
:100202006902E0E30E943702E0E30E943702E0E382
:100212000E943702E8E30E943702EEE00E943702B2
:10022200E6E00E943702E1E00E9437020895BA93A5
:10023200AA93A881B981EC91E03041F0ED91A883B5
:10024200B983AE2F25D00E943C02F3CF71C0AA938E
:100252001A930A9315E01030B1F0AB81BC81EAE049
:10026200F0E00E948F020E2F1F931150EA81AF918E
:10027200EA1749F0AB81BC81EAE0F0E00E94770224
:10028200EB83FC83E8CFE02F19810881259608953E
:10029200AA93EF97219780E4A0E0B0E0ECE8F0E0C9
:1002A2000E94AA02DE01A05CBF4FAC91A03C60F0AC
:1002B200FE01E05CFF4FE081F0E0E05CF040DE0137
:1002C200AE0FBF1FEC9104C0FE01E05CFF4FE08166
:1002D200EF9622960895E0916400ED7FE09364002A
:1002E2000E944102E26029C0AA931A930E944C0222
:1002F20010E8113098F0E12FA981EA2321F0E09172
:100302006400ED7F03C0E0916400E260E09364006A
:100312000E9455020E9459021695EBCFE0916400AB
:10032200E260E09364000E9455020E945902188123
:10033200229608950E944102ED7FE093640088EBCB
:100342008A95F1F70895AA931A930A9300E0E0912F
:100352006400ED7FE093640010E8113088F0E091D2
:100362006400EE7FE093640088EB8A95F1F7E091F8
:100372006300E27009F0012B0E944C021695EDCF4A
:10038200EA81E03021F0E0916400ED7F03C0E0916A
:100392006400E260E09364000E9455020E945902E8
:1003A200E0916400E260E093640088EB8A95F1F7E3
:1003B200E02F26C00E946002A1E52BC0AA931A93E7
:1003C2000A9389DFEA81EE0FE069AE2F8DDFAAEA98
:1003D2008BDF81DFEA81EE0FE169AE2F85DFA0E0DE
:1003E200B2DF0E2F1127102F0027A1E0ACDFF0E0C3
:1003F2000E0F1F1F9FDFD801E0E0F1E00E948A028A
:1004020019810881239608950E946002ACEA6CDF8C
:10041200A1E06ADF8FDF21960895EADEA0E0B5E071
:1004220006DFE0E0EA93A1E09BDEABE0B5E0FFDEB1
:10043200A0E0EADFA0E0BEDFEAE0EA93A0E090DE1F
:10044200A0E0BCDFDF0197DEA7E0DEDFA7E0B2DFDE
:10045200EAE0EA93A1E084DEA7E0B0DFDF018BDE11
:10046200A8ECB0E00E946902E3CFFFCFEA93A1E0DB
:10047200B0E00C94E400EA93A0E0B0E00C94E40055
:10048200E0916400EE7FE093640088EB8A95F1F7D7
:10049200E09164000895E0916400E160E0936400FB
:1004A20088EB8A95F1F7089588EB8A95F1F7E8CF02
:1004B200E160E093640088EB8A95F1F70895AA93CE
:1004C2000E946C01E881EE0FE069AE2F0C94750179
:1004D200109639F08BEC9AE00197F1F7A8951197F5
:1004E200C9F70895F195E195F0400895002411248B
:1004F20090E1AA0FBB1F001C111C0E1A1F0A18F450
:100502000E0E1F1E01C0A1609A9599F7FD01D00140
:10051200089507D0EBDF0EF4E5DF0895E7DFFD0174
:100522000895E894F7FF02C0DDDF6894B7FF06C0C4
:10053200A095B095119600F8039400FA08953A93A5
:100542002A931A930A9308953B812A81198108817B
:100552000895AC0FBD1F05900D928A95E1F708959D
:00000001FF
