:040000000C94590003
:100004000C9400000C9400000C9400000C9400006C
:100014000C9400000C9400000C9400000C9400005C
:100024000C9400000C9400000C9400000C9400004C
:100034000C9400000C9400000C9400000C9400003C
:100044000C9400000C9400000C9400000C9400002C
:100054000C9400000C9400000C9400000C9400001C
:100064000C9400000C9400000C9400000C9400000C
:100074000C9400000C9400000C9400000C940000FC
:100084000C9400000C9400003F065B4F666D7D07E6
:100094007F6F400001002D4E414E00494E46000046
:1000A4000B0000058C0001000C0598000000F8947A
:1000B400EE27ECBBF1E0F5BFE5BFE0936C008DE00B
:1000C400A2E0BB27ED938A95E9F780E090E1A0E0F8
:1000D400B1E0ED930197E9F7E4EAF0E085919591B9
:1000E400009761F0A591B59105901590BF01F001BD
:1000F40005900D920197E1F7FB01F0CF8BBFEFEF75
:10010400EDBFE0E1EEBFC0E0D5E00C942201AA937C
:100114000E94860115E02D813E81103099F0D901AD
:10012400EAE0F0E00E9481010E2F1F931150EC8150
:10013400AF91EA1739F0D901EAE0F0E00E946E01CC
:100144009F01EBCFE02F0E948D0127960895BA936B
:10015400AA930E94840111E020E030E04E815F8187
:10016400AF81AA2322F4AE81BF818ED0AF01229742
:100174005A934A93A12FCBDFF0E0E883F9833097B9
:1001840081F4022E032A49F4E0910B05E5BB1530F6
:1001940019F4E0910005E5BB03C0E0910005E5BB5F
:1001A4001DC0A985AA2392F4022E032A79F4E091B2
:1001B4000A05E5BB0E945001E129EBBB84E08A9566
:1001C400F1F70E945001E095E121EBBB21E030E022
:1001D400E881F981E050FB4FE081E5BB1BB2E12FE0
:1001E400A1E00E946101E129EBBB84E08A95F1F76B
:1001F4001BB2E12FA1E00E946101E095E121EBBB7C
:100204001F5F2296163008F4B2CF0E948B01289605
:100214000895EBB3E17CEBBBE0E0E5BBEEE3EABBC6
:10022400EFEFE4BB0895369A349BFECF349AE4B1E1
:10023400F0E0DF01E5B1FE2FE0E0EA0FFB1F0895D7
:10024400E8DFE3E4E7B9379AE0E3E2B9EFE2E09309
:100254008B00E9E0E0938A00E6DF8F01D80177DFC5
:10026400F8010E946901E093830000938200F80181
:100274000E946901E093850000938400A4E1B0E04A
:100284000E945701E9CFFFCFBA93AA93E991F9915C
:1002940030971AF4E095F095319608951BB2E12F4A
:1002A400E150A1E00E9461010895109639F08BECB1
:1002B4009AE00197F1F7A8951197C9F70895EE23ED
:1002C4000E2EEA2F19F0EE0F0A94E9F70895EF2F96
:1002D400FF27E7FDFFEF08950024112490E1AA0F02
:1002E400BB1F001C111C0E1A1F0A18F40E0E1F1E31
:1002F40001C0A1609A9599F7FD01D0010895ECDF42
:10030400FD0108955A934A933A932A931A930A93B0
:1003140008955D814C813B812A811981088108956A
:00000001FF
