:020000000C945E
:1000020059000C9400000C9400000C9400000C9415
:1000120000000C9400000C9400000C9400000C945E
:1000220000000C9400000C9400000C9400000C944E
:1000320000000C9400000C9400000C9400000C943E
:1000420000000C9400000C9400000C9400000C942E
:1000520000000C9400000C9400000C9400000C941E
:1000620000000C9400000C9400000C9400000C940E
:1000720000000C9400000C9400000C9400000C94FE
:1000820000000C9400000C9400003F065B4F666D6C
:100092007D077F6F400001002D4E414E00494E46C4
:1000A20000000B0000058C0001000C059800000008
:1000B200F894EE27ECBBF1E0F5BFE5BFE0936C00EE
:1000C2008DE0A2E0BB27ED938A95E9F780E090E10D
:1000D200A0E0B1E0ED930197E9F7E4EAF0E0859161
:1000E2009591009761F0A591B59105901590BF018A
:1000F200F00105900D920197E1F7FB01F0CF8BBF64
:10010200EFEFEDBFE0E1EEBFC0E0D5E00C942201DD
:10011200AA930E94FD0215E02D813E81103099F0D4
:10012200D901EAE0F0E00E94E9020E2F1F9311507C
:10013200EC81AF91EA1739F0D901EAE0F0E00E94D0
:10014200D6029F01EBCFE02F0E9404032796089569
:10015200BA93AA930E94FB0211E020E030E04E81A4
:100162005F81AF81AA2322F4AE81BF81ABD0AF0100
:1001720022975A934A93A12FCBDFF0E0E883F983C9
:10018200309781F4022E032A49F4E0910B05E5BB76
:10019200153019F4E0910005E5BB03C0E0910005BC
:1001A200E5BB1DC0A985AA2392F4022E032A79F485
:1001B200E0910A05E5BB0E946D01E129EBBB84E0F9
:1001C2008A95F1F70E946D01E095E121EBBB21E0F8
:1001D20030E0E881F981E050FB4FE081E5BB1BB2E2
:1001E200E12FA1E00E94C902E129EBBB84E08A95DC
:1001F200F1F71BB2E12FA1E00E94C902E095E121D3
:10020200EBBB1F5F2296163008F4B2CF0E940203A6
:1002120028960895EBB3E17CEBBBE0E0E5BBEEE3AF
:10022200EABBEFEFE4BB0895369A349BFECF349AD3
:10023200E4B1F0E0DF01E5B1FE2FE0E0EA0FFB1FE1
:1002420008952497E7DFE3E4E7B9379AE7B3E06676
:10025200E7BBE2EAEFBDEAE1EEBDE0E0FCE6F7BDB6
:10026200E6BDE6E6F5E0FBBDEABDF9BDE8BDDCDFD3
:100272000E94D1020E94F0010E9474010E94F102C8
:10028200E1E9FDEE6CEA7FE30E9473020E947701CE
:10029200A0E0B0EC8CEA94E40E9423020E94770171
:1002A2000E94B901DF0154DF0E947B01FBBDEABD60
:1002B2000E947B01F9BDE8BDA4E1B0E00E9480018B
:1002C200D6CFFFCFBA93AA93E991F99130971AF456
:1002D200E095F095319608951BB2E12FE150A1E02F
:1002E2000E94C90208950E94F6020895FCDF0E944E
:1002F200EC0208950E94EC020E94B9010895109642
:1003020039F08BEC9AE00197F1F7A8951197C9F7AC
:100312000895552342F4503811F4E0FF04C0319699
:10032200691F791F6BF050E8572711F45F93C8C01B
:100332005F3F31F0660F000C57956795752F089552
:100342005F9300200AF0C8C0C1C050E8192E1522E0
:10035200880F991F9527550F879550E8072E05227C
:10036200660F771F7527550F67950895689401C02A
:10037200E8945F93F2DF703818F07F3F08F4A0C072
:1003820056E1571BAAF4519558300EF4593030F00B
:10039200EFEFFFEF6FEF7FE777F91AC0772755236B
:1003A200B9F0EE0FFF1F661F771F5A95D1F710C0E5
:1003B2007727583028F0EF2FF62F672F5850F9CFB4
:1003C200552331F076956795F795E7955A95D1F7CC
:1003D20000200AF4D5D05F910895689401C0E89492
:1003E200309760407040B1F0002426F0772312F479
:1003F2000094C6D0172E7EE1112032F07A95EE0FCE
:10040200FF1F661F111CF9CFEF2FF62F612D5F938F
:100412008ADF5F9108954F93AF01FD01DA01AB01CD
:10042200BC01CA01402D012C142E4F910895EA0FF0
:10043200FB1F681F0895E095F0956095EF5FFF4FF1
:100442006F4F08955F9381DF903839F1703821F151
:10045200572F591B2BF112F4DEDFFACF583118F067
:10046200AA27BB278827583028F0AB2FB82F882718
:100472005850F9CF552329F08695B795A7955A95E7
:10048200D9F7502D512572F0D2DF38F46795F795E0
:10049200E795739513F420C0BEDF45DF5F910895A1
:1004A200D8F7FBCFEA1BFB0B680B51F010F400945A
:1004B200C2DF662392F3EE0FFF1F661F7A95CBF71A
:1004C200EE27FF27662777275F910895EFEFFFEF6B
:1004D2006FE77FEF5F910895EFEFFFEF6FE77FE741
:1004E2005F9108955F9331DF703851F3903841F393
:1004F20001240894791F23F41CF300203AF3ECCF73
:100502000F921F932F933F934F93112722279927DF
:10051200689FA0018F9F302D410D591F6B9F300D99
:10052200411D591F8E9F27D0BF9F25D06A9F23D080
:10053200BE9F1DD0AF9F1BD0AE9F110D291F391F2B
:10054200491F591FE32FF42F652F522F4F913F91CF
:100552002F911F910F9066232AF0550FEE1FFF1F58
:10056200661F02C073954BF2D4DE5F910895100DA1
:10057200211D391F02C0200D311D491F591F089529
:10058200F09560957095E195FF4F6F4F7F4F0895FD
:10059200EE230E2EEA2F19F0EE0F0A94E9F70895D2
:1005A2006F2F660F660B762F08950024112490E1B9
:1005B200AA0FBB1F001C111C0E1A1F0A18F40E0EE4
:1005C2001F1E01C0A1609A9599F7FD01D0010895FF
:1005D200ECDFFD010895E881F9816A817B8108954C
:1005E200A881B9818A819B810895E883F9836A830E
:1005F2007B8308955A934A933A932A931A930A93C0
:1006020008955D814C813B812A8119810881089579
:00000001FF
