:0E0000000C945F000C9400000C941B010C94F7
:10000E0000000C9400000C9400000C9400000C9462
:10001E0000000C9400000C9400000C9400000C9452
:10002E0000000C9400000C9400000C9400000C9442
:10003E0000000C9400000C9400000C9400000C9432
:10004E0000000C9400000C9400000C9400000C9422
:10005E0000000C9400000C9400000C9400000C9412
:10006E0000000C9400000C9400000C9400000C9402
:10007E0000000C9400000C9400000C94000005008D
:10008E00010000003F065B4F666D7D077F6F4000ED
:10009E0001002D4E414E00494E4600000600040060
:1000AE008C000B000005920001000C059E00000064
:1000BE00F894EE27ECBBF1E0F5BFE5BFE0936C00E2
:1000CE008DE0A2E0BB27ED938A95E9F780E090E101
:1000DE00A0E0B1E0ED930197E9F7EAEAF0E085914F
:1000EE009591009761F0A591B59105901590BF017E
:1000FE00F00105900D920197E1F7FB01F0CF8BBF58
:10010E00EFEFEDBFE0E1EEBFC0E0D5E00C9478017B
:10011E00AA930E94430215E02D813E81103099F082
:10012E00D901EAE0F0E00E943E020E2F1F9311501B
:10013E00EC81AF91EA1739F0D901EAE0F0E00E94C4
:10014E002B029F01EBCFE02F0E944A0227960895C3
:10015E00BA93AA930E94410211E020E030E04E8152
:10016E005F81AF81AA2322F4AE81BF8154D1AF014A
:10017E0022975A934A93A12FCBDFF0E0E883F983BD
:10018E00309781F4022E032A49F4E0910B05E5BB6A
:10019E00153019F4E0910005E5BB03C0E0910005B0
:1001AE00E5BB1DC0A985AA2392F4022E032A79F479
:1001BE00E0910A05E5BB0E941C02E129EBBB84E03D
:1001CE008A95F1F70E941C02E095E121EBBB21E03C
:1001DE0030E0E881F981E050FB4FE081E5BB1BB2D6
:1001EE00E12FA1E00E942302E129EBBB84E08A9576
:1001FE00F1F71BB2E12FA1E00E942302E095E1216D
:10020E00EBBB1F5F2296163008F4B2CF0E94480255
:10021E0028960895EBB3E17CEBBBE0E0E5BBEEE3A3
:10022E00EABBEFEFE4BB0895EA93FA93EFB7EA93D4
:10023E00819B19C0E8E0E0936A0080990AC099207A
:10024E0021F0F20131962F0103C0F30131963F01E7
:10025E0009C0992021F0F20131972F0103C0F3015B
:10026E0031973F0118C0ECE0E0936A0080990AC014
:10027E00992021F0F20131972F0103C0F30131973C
:10028E003F0109C0992021F0F20131962F0103C0E0
:10029E00F30131963F01E1E0F0E04E165F0608F4FF
:1002AE002F01E1E0F0E06E167F0608F42F01E991D0
:1002BE00EFBFF991E9911895AA93E881E064E7B947
:1002CE0085E28A95F1F7369A349BFECF349AE4B1E3
:1002DE00F0E0DF01E5B1FE2FE0E0EA0FFB1F219613
:1002EE00089598DF7894ECE0E0936A00E2E0E9BFCD
:1002FE00E0E2E7BBE8E0E0936400E7E8E6B9E1E8B6
:10030E00EFBDE9E0EEBD2A97E0E0E883E983EA83FA
:10031E00EB83EC83ED83A1E0CFDFFF93EF93A1E0BE
:10032E00CBDFAF91BF91EA0FFB1FFF93EF93A1E0DD
:10033E00C3DFAF91BF91EA0FFB1FFF93EF93A1E0D5
:10034E00BBDFAF91BF91EA0FFB1FFF93EF93A1E0CD
:10035E00B3DFAF91BF91AE0FBF1FE5E0F0E00E949B
:10036E002B02E887F987E050F240E887F987A3E08F
:10037E00A3DFEE83FF83A885B985EA1BFB0BEC8315
:10038E00FD83F201AC81BD810E942B02BF01A881C9
:10039E00B981EC81FD81EA1BFB0BDF01F3010E94A9
:1003AE002B02E60FF71FEA83FB83EC81FD81E883C6
:1003BE00F983AA81BB81A030E1E0BE0724F0EFEF04
:1003CE00F0E0EA83FB83AA81BB81A130EFEFBE0789
:1003DE0024F4E1E0FFEFEA83FB83AB81AA233AF03A
:1003EE00E0916500E77FE0936500EA8107C0E09148
:1003FE006500E860E0936500EA81E195EABDE92DCC
:10040E00F0E0309711F0F20101C0F301DF01A0DE40
:10041E002A9679CFFFCFBA93AA93E991F9913097A3
:10042E001AF4E095F095319608951BB2E12FE15044
:10043E00A1E00E9423020895EE230E2EEA2F19F05A
:10044E00EE0F0A94E9F708950024112490E1AA0F03
:10045E00BB1F001C111C0E1A1F0A18F40E0E1F1EB5
:10046E0001C0A1609A9599F7FD01D0010895ECDFC6
:10047E00FD0108955A934A933A932A931A930A9335
:10048E0008955D814C813B812A81198108810895EF
:00000001FF
