:020000000C945E
:100002005D000C9400000C941D010C9400000C94F3
:1000120000000C9400000C9400000C9400000C945E
:1000220000000C9400000C9400000C9400000C944E
:1000320000000C9400000C9400000C9400000C943E
:1000420000000C9400000C9400000C9400000C942E
:1000520000000C9400000C9400000C9400000C941E
:1000620000000C9400000C9400000C9400000C940E
:1000720000000C9400000C9400000C9400000C94FE
:1000820000000C9400000C94000000003F065B4F3F
:10009200666D7D077F6F400001002D4E414E004985
:1000A2004E460000020004008C000B0000058E008A
:1000B20001000C059A000000F894EE27ECBBF1E079
:1000C200F5BFE5BFE0936C008DE0A2E0BB27ED93A6
:1000D2008A95E9F780E090E1A0E0B1E0ED93019725
:1000E200E9F7E6EAF0E085919591009761F0A59134
:1000F200B59105901590BF01F00105900D92019701
:10010200E1F7FB01F0CF8BBFEFEFEDBFE0E1EEBF18
:10011200C0E0D5E00C944D01AA930E949D0115E028
:100122002D813E81103099F0D901EAE0F0E00E9481
:1001320098010E2F1F931150EC81AF91EA1739F0FD
:10014200D901EAE0F0E00E9485019F01EBCFE02FA8
:100152000E94A40127960895BA93AA930E949B0134
:1001620011E020E030E04E815F81AF81AA2322F4CA
:10017200AE81BF81A6D0AF0122975A934A93A12F95
:10018200CBDFF0E0E883F983309781F4022E032A73
:1001920049F4E0910B05E5BB153019F4E091000537
:1001A200E5BB03C0E0910005E5BB1DC0A985AA23FC
:1001B20092F4022E032A79F4E0910A05E5BB0E942B
:1001C2006C01E129EBBB84E08A95F1F70E946C0196
:1001D200E095E121EBBB21E030E0E881F981E050DC
:1001E200FB4FE081E5BB1BB2E12FA1E00E947D0144
:1001F200E129EBBB84E08A95F1F71BB2E12FA1E084
:100202000E947D01E095E121EBBB1F5F2296163033
:1002120008F4B2CF0E94A20128960895E0E0EBBB59
:10022200E5BBEEE3EABBEFEFE4BB7894ECE0E093EE
:100232006A00E2E0E9BF08950A92EA93FA93EFB7FF
:10024200EA93819B0CC0E8E0E0936A00809903C0C6
:10025200F201319602C0F20131972F010BC0ECE09E
:10026200E0936A00809903C0F201319702C0F20163
:1002720031962F01EFEFF0E0E415F5050CF42F01B4
:1002820000244014500414F444245524E991EFBF8F
:10029200F991E99109901895C1DFE0E3E2B9EDE245
:1002A200E0938B00E9E0E0938A00D20155DF4092AF
:1002B200820040928400A4E1B0E00E947301F5CF75
:1002C200FFCFBA93AA93E991F99130971AF4E09586
:1002D200F095319608951BB2E12FE150A1E00E9402
:1002E2007D010895109639F08BEC9AE00197F1F7B1
:1002F200A8951197C9F70895EE230E2EEA2F19F04B
:10030200EE0F0A94E9F708950024112490E1AA0F50
:10031200BB1F001C111C0E1A1F0A18F40E0E1F1E02
:1003220001C0A1609A9599F7FD01D0010895ECDF13
:10033200FD0108955A934A933A932A931A930A9382
:1003420008955D814C813B812A811981088108953C
:00000001FF
