:0A0000000C945D000C9400000C94B9
:10000A0019010C9400000C9400000C9400000C944C
:10001A0000000C9400000C9400000C9400000C9456
:10002A0000000C9400000C9400000C9400000C9446
:10003A0000000C9400000C9400000C9400000C9436
:10004A0000000C9400000C9400000C9400000C9426
:10005A0000000C9400000C9400000C9400000C9416
:10006A0000000C9400000C9400000C9400000C9406
:10007A0000000C9400000C9400000C9400000C94F6
:10008A00000000003F065B4F666D7D077F6F4000F2
:10009A0001002D4E414E00494E4600000200040068
:1000AA008C000B0000058E0001000C059A00000070
:1000BA00F894EE27ECBBF1E0F5BFE5BFE0936C00E6
:1000CA008DE0A2E0BB27ED938A95E9F780E090E105
:1000DA00A0E0B1E0ED930197E9F7E6EAF0E0859157
:1000EA009591009761F0A591B59105901590BF0182
:1000FA00F00105900D920197E1F7FB01F0CF8BBF5C
:10010A00EFEFEDBFE0E1EEBFC0E0D5E00C944701B0
:10011A00AA930E94910115E02D813E81103099F039
:10012A00D901EAE0F0E00E948C010E2F1F931150D2
:10013A00EC81AF91EA1739F0D901EAE0F0E00E94C8
:10014A0079019F01EBCFE02F0E949801279608952D
:10015A00BA93AA930E948F0111E020E030E04E8109
:10016A005F81AF81AA2322F4AE81BF819AD0AF0109
:10017A0022975A934A93A12FCBDFF0E0E883F983C1
:10018A00309781F4022E032A49F4E0910B05E5BB6E
:10019A00153019F4E0910005E5BB03C0E0910005B4
:1001AA00E5BB1DC0A985AA2392F4022E032A79F47D
:1001BA00E0910A05E5BB0E946001E129EBBB84E0FE
:1001CA008A95F1F70E946001E095E121EBBB21E0FD
:1001DA0030E0E881F981E050FB4FE081E5BB1BB2DA
:1001EA00E12FA1E00E947101E129EBBB84E08A952D
:1001FA00F1F71BB2E12FA1E00E947101E095E12124
:10020A00EBBB1F5F2296163008F4B2CF0E9496010C
:10021A0028960895EBB3E17CEBBBE0E0E5BBEEE3A7
:10022A00EABBEFEFE4BB0895EA93FA93EFB7EA93D8
:10023A00819B0CC0E8E0E0936A00809903C0F20158
:10024A00399602C0F20139972F010BC0ECE0E09316
:10025A006A00809903C0F201399702C0F201399607
:10026A002F01E4EBF0E0E415F5050CF42F01ECE4C2
:10027A00FFEF4E165F060CF42F01E991EFBFF991DB
:10028A00E9911895C7DF7894ECE0E0936A00E2E020
:10029A00E9BFD2015DDFA4E1B0E00E946701F9CFB6
:1002AA00FFCFBA93AA93E991F99130971AF4E0959E
:1002BA00F095319608951BB2E12FE150A1E00E941A
:1002CA0071010895109639F08DEC9AE00197F1F7D3
:1002DA00A8951197C9F70895EE230E2EEA2F19F063
:1002EA00EE0F0A94E9F708950024112490E1AA0F69
:1002FA00BB1F001C111C0E1A1F0A18F40E0E1F1E1B
:10030A0001C0A1609A9599F7FD01D0010895ECDF2B
:10031A00FD0108955A934A933A932A931A930A939A
:10032A0008955D814C813B812A8119810881089554
:00000001FF
