:0C0000000C9459000C9400000C940000BB
:10000C000C9400000C9400000C9400000C94000064
:10001C000C9400000C9400000C9400000C94000054
:10002C000C9400000C9400000C9400000C94000044
:10003C000C9400000C9400000C9400000C94000034
:10004C000C9400000C9400000C9400000C94000024
:10005C000C9400000C9400000C9400000C94000014
:10006C000C9400000C9400000C9400000C94000004
:10007C000C9400000C9400000C9400000C940000F4
:10008C003F065B4F666D7D077F6F400001002D4E74
:10009C00414E00494E4600000B0000058C0001004B
:1000AC000C0598000000F894EE27ECBBF1E0F5BFCE
:1000BC00E5BFE0936C008DE0A2E0BB27ED938A9541
:1000CC00E9F780E090E1A0E0B1E0ED930197E9F76A
:1000DC00E4EAF0E085919591009761F0A591B591D6
:1000EC0005901590BF01F00105900D920197E1F775
:1000FC00FB01F0CF8BBFEFEFEDBFE0E1EEBFC0E057
:10010C00D5E00C94AC01AA930E94620215E02D81FB
:10011C003E81103099F0D901EAE0F0E00E944A02E9
:10012C000E2F1F931150EC81AF91EA1739F0D901C2
:10013C00EAE0F0E00E9437029F01EBCFE02F0E9433
:10014C00690227960895BA93AA930E94600211E05F
:10015C0020E030E04E815F8122975A934A93A12F81
:10016C00D2DFF0E0E883F983309781F4022E032A82
:10017C0049F4E0910B05E5BB153019F4E09100054D
:10018C00E5BB03C0E0910005E5BB08C021E030E011
:10019C00E881F981E050FB4FE081E5BB1BB2E12F18
:1001AC00A1E00E941402E129EBBB84E08A95F1F7EF
:1001BC001BB2E12FA1E00E941402E095E121EBBB00
:1001CC001F5F2296163040F20E9467027CC0EBB390
:1001DC00E17CEBBBE0E0E5BBEEE3EABBEFEFE4BBBD
:1001EC000895E9E0E09364000E94D7010895AA9372
:1001FC001A9310E81130B0F0E12FA981EA2321F015
:10020C00E0916500E86003C0E0916500E77FE09352
:10021C0065000E94D70185E28A95F1F70E94DD0105
:10022C001695E8CF1881229608951A930A9300E048
:10023C0010E8113070F00E94DD010E94D70185E2B8
:10024C008A95F1F7E0916300E27009F0012B1695A5
:10025C00F0CFE02FF0E009911991089524970E94B6
:10026C006202E0916300E270E1F7DFDF1E2FDDDF59
:10027C000E2FDBDF3E2FE12FF0E00E943202DF0178
:10028C00CB01EFE00E941C027F936F93FF93EF93DF
:10029C00E02FF0E00E943202DF01CB01E7E00E9488
:1002AC001C02AF91BF918F919F910E940F02E32F7F
:1002BC00F0E00E9432020E940A02EC83FD836E83FE
:1002CC007F830E946902289608950E94E601A6E1A8
:1002DC008EDF0E94E6010E94EE01A0E80E94F6016A
:1002EC000E94EE01A0E00E94F601ACE580DF0895CB
:1002FC001A9310E0143020F4AFEF79DF1F5FFACFC0
:10030C0019910895E8E6E3BFBC9AE0E8E1BF0895CF
:10031C00E3B7E66002C0E3B7E97FE3BF08950E944C
:10032C0057021A9310E0E981FA816B817C810E945B
:10033C005C0241F00E942802E983FA836B837C8380
:10034C001F5FF1CFE12F18812596089524973FDF89
:10035C00D9DF47DFCDDFB9DF81DF0E942D02FF2718
:10036C0066277727FF27662777270E94520276DFBA
:10037C00DF01CB01D4DFF0E0DF01E5DE0E944D02AE
:10038C00A131E0E0BE07E0E08E07E0E09E0710F050
:10039C00BFDF01C0C0DFA8ECB0E00E940002DCCFE0
:1003AC00FFCFE0916500E160E09365000895E09176
:1003BC006500EE7FE093650085E28A95F1F708957C
:1003CC00A0E10E94FD0089EF90E00197F1F70895FC
:1003DC00A8E00E94FD0089EF90E00197F1F70895E5
:1003EC000E94FD00AFE00E94FD0089EF90E00197B4
:1003FC00F1F70895109639F08BEC9AE00197F1F72C
:10040C00A8951197C9F70895EA0FFB1F681F791F6C
:10041C000895AE0FBF1F861F971F0895EE230E2E53
:10042C00EA2F19F0EE0F0A94E9F70895EE230E2E39
:10043C00FD01BC0131F0EE0FFF1F661F771F0A9400
:10044C00D1F7089576956795F795E7950895E62F7A
:10045C00F72F60E070E008956F2F660F660B762F14
:10046C0008950024112490E1AA0FBB1F001C111C3D
:10047C000E1A1F0A18F40E0E1F1E01C0A1609A95C9
:10048C0099F7FD01D0010895ECDFFD010895A881D5
:10049C00B9818A819B810895E883F9836A837B8380
:1004AC0008959A938A93BA93AA93089530976040CB
:1004BC00704008955A934A933A932A931A930A9345
:1004CC0008955D814C813B812A81198108810895B1
:00000001FF
